{
  "_format": "hh-sol-artifact-1",
  "contractName": "New",
  "sourceName": "Contracts/New.sol",
  "abi": [
    {
      "inputs": [],
      "name": "Get",
      "outputs": [
        {
          "internalType": "uint256",
          "name": "",
          "type": "uint256"
        }
      ],
      "stateMutability": "view",
      "type": "function"
    },
    {
      "inputs": [],
      "name": "Increment",
      "outputs": [],
      "stateMutability": "nonpayable",
      "type": "function"
    },
    {
      "inputs": [],
      "name": "Num",
      "outputs": [
        {
          "internalType": "uint256",
          "name": "",
          "type": "uint256"
        }
      ],
      "stateMutability": "view",
      "type": "function"
    },
    {
      "inputs": [
        {
          "internalType": "uint256",
          "name": "Temp",
          "type": "uint256"
        }
      ],
      "name": "Set",
      "outputs": [],
      "stateMutability": "nonpayable",
      "type": "function"
    }
  ],
  "bytecode": "0x608060405234801561001057600080fd5b50610224806100206000396000f3fe608060405234801561001057600080fd5b506004361061004c5760003560e01c80634237c65b14610051578063648b7ce81461006f578063b1976a0214610079578063df7a95ae14610097575b600080fd5b6100596100b3565b60405161006691906100fe565b60405180910390f35b6100776100b9565b005b6100816100d2565b60405161008e91906100fe565b60405180910390f35b6100b160048036038101906100ac919061014a565b6100db565b005b60005481565b6000808154809291906100cb906101a6565b9190505550565b60008054905090565b8060008190555050565b6000819050919050565b6100f8816100e5565b82525050565b600060208201905061011360008301846100ef565b92915050565b600080fd5b610127816100e5565b811461013257600080fd5b50565b6000813590506101448161011e565b92915050565b6000602082840312156101605761015f610119565b5b600061016e84828501610135565b91505092915050565b7f4e487b7100000000000000000000000000000000000000000000000000000000600052601160045260246000fd5b60006101b1826100e5565b91507fffffffffffffffffffffffffffffffffffffffffffffffffffffffffffffffff82036101e3576101e2610177565b5b60018201905091905056fea2646970667358221220c02d2a7cb91eee105afce21be0765955b5d6c654b43ee6fea1c111ff63c40d6364736f6c63430008130033",
  "linkReferences": {},
  "deployedLinkReferences": {}
}